:100000000C942A000C9447000C9447000C94470071
:100010000C9447000C9447000C9447000C94470044
:100020000C9447000C9447000C9447000C94470034
:100030000C9447000C9449000C9447000C94470022
:100040000C9447000C9447000C9447000C94470014
:100050000C94470011241FBECFE5D8E0DEBFCDBF12
:1000600010E0A0E6B0E0E2EAF9E002C005900D92EF
:10007000A437B107D9F710E0A4E7B0E001C01D92A2
:10008000A537B107E1F70E94F7000C94CF040C9458
:1000900000001F920F920FB60F921124DF92EF9281
:1000A000FF920F931F932F933F934F935F936F9301
:1000B0007F938F939F93AF93BF93EF93FF93DF93C0
:1000C000CF9300D0CDB7DEB7F8940E941B018A3FD2
:1000D00021F0FF24DD24EE241FC0FF24DD24EE24C4
:1000E0000E941B01982F80917400813039F081307B
:1000F00018F0823031F404C0F92E03C0D92E01C0AB
:10010000E92E809174008F5F809374009C3641F7D4
:1001100080917400833020F31092740000D000D0DE
:1001200000D0EDB7FEB731968E010F5F1F4FADB710
:10013000BEB712961C930E93119780E690E09383BE
:100140008283F48215820E94F7018DB79EB70696CE
:100150000FB6F8949EBF0FBE8DBF86E066E0A80183
:100160000E94BD0100D000D000D0EDB7FEB731969F
:100170008E010E5F1F4FADB7BEB712961C930E9344
:10018000119785E690E0938382839D2D80E02E2D4C
:1001900030E0822B932B958384830E94F7018DB7E7
:1001A0009EB706960FB6F8949EBF0FBE8DBF86E42D
:1001B0006AE0A8010E94BD0178940F900F90CF9142
:1001C000DF91FF91EF91BF91AF919F918F917F91BF
:1001D0006F915F914F913F912F911F910F91FF90E0
:1001E000EF90DF900F900FBE0F901F9018950E9418
:1001F000760180E190E00E940B0180E064E04AE635
:1002000050E00E94BD0180E464E04FE650E00E94AF
:10021000BD017894FFCF90BD89B98AB188698AB948
:1002200086EB80BD08955D9BFECF8CB908955D9BE4
:10023000FECF8CB908955F9BFECF8CB10895FC0171
:1002400004C05D9BFECF8CB9319680818823C9F7AD
:1002500008951ABAC298C098C19ADF99FECF8FEF5D
:100260008ABBC19808951F93182F0E9429011BBBB8
:10027000C29AC09A88EC90E00197F1F7C298C098B2
:100280001BBA80EE9EE20197F1F71F9108950E943C
:1002900029011ABAC09AC19AC29A88EC90E00197D3
:1002A000F1F78BB3C298C098C19808951F93182F87
:1002B0000E9429018FEF8ABB1BBA1BBBC198C09853
:1002C000C29A88EC90E00197F1F7C2981BBA1F918F
:1002D000089581E00E94560180EE9EE20197F1F7B9
:1002E0000895815080680E94560108958FEF8ABB5F
:1002F0001BBA87B3876087BB88B388BB88E30E943B
:1003000056018CE00E94560181E00E94560180E077
:1003100099E10197F1F786E00E94560108950F9345
:100320001F93CF93DF93082F162FEA01FA01019054
:100330000020E9F73197E41BF50B1E1B812F800F7E
:100340000E94710103C00E94330121968881882395
:10035000D1F7802F0E947101C0E0D0E0012F10E0A2
:1003600004C080E30E9433012196C017D107CCF36B
:10037000DF91CF911F910F9108950F931F93CF930A
:10038000DF93282F162FEA01DA010D900020E9F7FC
:100390001197A41BB50B862F90E08A179B07F8F0E6
:1003A000822F0E947101FE0101900020E9F7319730
:1003B000EC1BFD0B1E1B03C00E943301219688819C
:1003C0008823D1F7C0E0D0E0012F10E004C080E224
:1003D0000E9433012196C017D107CCF303C082E3FA
:1003E0000E943301DF91CF911F910F910895AEE0EC
:1003F000B0E0EDEFF1E00C94A6040D891E8986E0D3
:100400008C831A8309838FEF9FE79E838D839E01E0
:10041000275E3F4FCE0101966F89788DA9010E941A
:100420001B022F813885020F131FF80110822E96B0
:10043000E4E00C94C204ABE0B0E0E1E2F2E00C9442
:1004400098043C012B015A01FC011782168283811A
:1004500081FD03C06FEF7FEFC6C19AE0892E1E01B8
:100460000894211C311CF3012381F20123FD8591A5
:1004700023FF81912F01882309F4B2C1853239F419
:1004800023FD859123FF81912F01853229F490E08E
:10049000B3010E940E04E7CF982FFF24EE24992485
:1004A000FFE1FF15D0F09B3269F09C3228F49032C6
:1004B00059F0933291F40EC09D3249F0903369F4B3
:1004C00041E024C052E0F52A84E0F82A28C098E0F0
:1004D000F92A25C0E0E1FE2A22C0F7FC29C0892FB5
:1004E00080538A3070F4F6FE05C0989C902C11243D
:1004F000980E15C0E89CE02C1124E80EF0E2FF2ACB
:100500000EC09E3229F4F6FC6BC140E4F42A07C009
:100510009C3619F450E8F52A02C0983649F4F201E5
:1005200023FD959123FF91912F01992309F0B8CFD5
:10053000892F8554833018F08052833038F444E09A
:1005400050E0A40EB51E5FE359830FC0933631F01F
:10055000933779F0933509F056C020C0F5018081BA
:10056000898342E050E0A40EB51E610101E010E075
:1005700012C0F501C080D180F6FC03C06FEF7FEFA1
:1005800002C0692D70E042E050E0A40EB51EC60125
:100590000E9403048C015FE7F52214C0F501C080BE
:1005A000D180F6FC03C06FEF7FEF02C0692D70E0D1
:1005B00042E050E0A40EB51EC6010E94F8038C0173
:1005C00050E8F52AF3FE07C01AC080E290E0B301BC
:1005D0000E940E04EA948E2D90E008171907A8F3E4
:1005E0000EC0F601F7FC8591F7FE81916F0190E056
:1005F000B3010E940E04E110EA940150104001156D
:10060000110579F7EAC0943611F0993669F5F7FECD
:1006100008C0F501208131814281538184E090E05E
:100620000AC0F501808191819C01442737FD4095E6
:10063000542F82E090E0A80EB91E9FE6F92257FFE2
:1006400009C050954095309521953F4F4F4F5F4FD2
:10065000E0E8FE2ACA01B901A1012AE030E00E94C7
:100660003A04D82ED21840C0953729F41F2D1F7E8A
:100670002AE030E01DC01F2D197F9F3661F09037B2
:1006800020F4983509F0ACC00FC0903739F0983796
:1006900009F0A6C004C028E030E00AC0106114FDD3
:1006A000146020E130E004C014FD166020E132E067
:1006B00017FF08C0F501608171818281938144E058
:1006C00050E008C0F50180819181BC0180E090E09C
:1006D00042E050E0A40EB51EA1010E943A04D82EBB
:1006E000D2188FE7F82EF122F6FE0BC05EEFF5224E
:1006F000D91438F4F4FE07C0F2FC05C08FEEF822DE
:1007000002C01D2D01C0192DF4FE0DC0FE01ED0D1E
:10071000F11D8081803319F499EEF92208C01F5F22
:10072000F2FE05C003C08F2D867809F01F5F0F2DE4
:10073000F3FC14C0F0FE0FC01E1510F09D2C0BC072
:100740009D2C9E0C911A1E2D06C080E290E0B301F4
:100750000E940E041F5F1E15C0F304C01E1510F486
:10076000E11A01C0EE2404FF0FC080E390E0B30162
:100770000E940E0402FF1DC001FD03C088E790E047
:100780000EC088E590E00BC0802F867891F001FFC5
:1007900002C08BE201C080E2F7FC8DE290E0B30181
:1007A0000E940E0406C080E390E0B3010E940E0494
:1007B0009A94D914C0F3DA94F101ED0DF11D808102
:1007C00090E0B3010E940E04DD20A9F706C080E28C
:1007D00090E0B3010E940E04EA94EE20C1F743CEEC
:1007E000F30166817781CB012B96E2E10C94B4048E
:1007F000FC010590615070400110D8F780959095EC
:100800008E0F9F1F0895FC016150704001900110F0
:10081000D8F7809590958E0F9F1F08950F931F9383
:10082000CF93DF938C01EB018B8181FF1BC082FF93
:100830000DC02E813F818C819D812817390764F47A
:10084000E881F9810193F983E88306C0E885F98599
:10085000802F0995892B31F48E819F8101969F838A
:100860008E8302C00FEF1FEFC801DF91CF911F9160
:100870000F910895FA01AA27283051F1203181F112
:10088000E8946F936E7F6E5F7F4F8F4F9F4FAF4F98
:10089000B1E03ED0B4E03CD0670F781F891F9A1FAB
:1008A000A11D680F791F8A1F911DA11D6A0F711D5F
:1008B000811D911DA11D20D009F468943F912AE06B
:1008C000269F11243019305D3193DEF6CF01089553
:1008D000462F4770405D4193B3E00FD0C9F7F6CF84
:1008E000462F4F70405D4A3318F0495D31FD40524C
:1008F000419302D0A9F7EACFB4E0A69597958795E2
:1009000077956795BA95C9F70097610571050895C0
:100910009B01AC010A2E069457954795379527956C
:10092000BA95C9F7620F731F841F951FA01D089504
:100930002F923F924F925F926F927F928F929F92EF
:10094000AF92BF92CF92DF92EF92FF920F931F93DD
:10095000CF93DF93CDB7DEB7CA1BDB0B0FB6F8948E
:10096000DEBF0FBECDBF09942A88398848885F84CE
:100970006E847D848C849B84AA84B984C884DF803F
:10098000EE80FD800C811B81AA81B981CE0FD11D23
:100990000FB6F894DEBF0FBECDBFED010895F894F9
:0209A000FFCF87
:1009A200256925250025694D62004350553A0052BC
:0409B200414D3A0079
:00000001FF
