:100000000C942A000C9447000C9447000C94470071
:100010000C9447000C9447000C9447000C94470044
:100020000C9447000C9447000C9447000C94470034
:100030000C9447000C9449000C9447000C94470022
:100040000C9447000C9447000C9447000C94470014
:100050000C94470011241FBECFE5D8E0DEBFCDBF12
:1000600010E0A0E6B0E0E6EBF9E002C005900D92EA
:10007000A837B107D9F711E0A8E7B0E001C01D9299
:10008000A837B107E1F70E94FB000C94D9040C9447
:1000900000001F920F920FB60F921124BF92CF92C1
:1000A000DF92EF92FF920F931F932F933F934F9303
:1000B0005F936F937F938F939F93AF93BF93EF93D0
:1000C000FF93DF93CF9300D0CDB7DEB7F8940E94B3
:1000D00025018A3F21F0DD24BB24CC241FC0DD2470
:1000E000BB24CC240E942501982F80917800813078
:1000F00039F0813018F0823031F404C0D92E03C0B9
:10010000B92E01C0C92E809178008F5F809378004E
:100110009C3641F780917800833020F3109278006C
:1001200000D000D000D0EDB7FEB731968E010F5F42
:100130001F4FADB7BEB712961C930E93119780E672
:10014000E82E80E0F82EF382E282D48215820E94AB
:1001500001028DB79EB706960FB6F8949EBF0FBEEC
:100160008DBF84E463E0A8010E94990100D000D013
:1001700000D0EDB7FEB731968E010E5F1F4FADB7C1
:10018000BEB712961C930E931197F382E2829B2DB9
:1001900080E02C2D30E0822B932B958384830E946A
:1001A00001028DB79EB706960FB6F8949EBF0FBE9C
:1001B0008DBF8BE465E0A8010E94990178940F90AF
:1001C0000F90CF91DF91FF91EF91BF91AF919F91F0
:1001D0008F917F916F915F914F913F912F911F91DF
:1001E0000F91FF90EF90DF90CF90BF900F900FBED8
:1001F0000F901F9018950E94800180E190E00E946E
:10020000150180E06DE043E650E00E94C70180E404
:1002100062E041E750E00E94C70188E462E044E701
:1002200050E00E94C7017894FFCF90BD89B98AB190
:1002300088698AB986EB80BD08955D9BFECF8CB935
:1002400008955D9BFECF8CB908955F9BFECF8CB166
:100250000895FC0104C05D9BFECF8CB9319680816E
:100260008823C9F708951ABAC298C098C19ADF992D
:10027000FECF8FEF8ABBC19808951F93182F0E945D
:1002800033011BBBC29AC09A88EC90E00197F1F74A
:10029000C298C0981BBA80EE9EE20197F1F71F91B9
:1002A00008950E9433011ABAC09AC19AC29A88EC82
:1002B00090E00197F1F78BB3C298C098C198089568
:1002C0001F93182F0E9433018FEF8ABB1BBA1BBBF1
:1002D000C198C098C29A88EC90E00197F1F7C29853
:1002E0001BBA1F91089581E00E94600180EE9EE29A
:1002F0000197F1F70895815080680E946001089588
:100300008FEF8ABB1BBA87B3876087BB88B388BB74
:1003100088E30E9460018CE00E94600181E00E94FD
:10032000600180E099E10197F1F786E00E946001A9
:1003300008950F931F93CF93DF93082F162FEA0191
:10034000FA0101900020E9F73197E41BF50B1E1B21
:10035000812F800F0E947B0103C00E943D012196E6
:1003600088818823D1F7802F0E947B01C0E0D0E0F4
:10037000012F10E004C080E30E943D012196C017C8
:10038000D107CCF3DF91CF911F910F9108950F9377
:100390001F93CF93DF93282F162FEA01DA010D90D8
:1003A0000020E9F71197A41BB50B862F90E08A1760
:1003B0009B07F8F0822F0E947B01FE010190002034
:1003C000E9F73197EC1BFD0B1E1B03C00E943D019A
:1003D000219688818823D1F7C0E0D0E0012F10E07A
:1003E00004C080E20E943D012196C017D107CCF3E2
:1003F00003C082E30E943D01DF91CF911F910F91D5
:100400000895AEE0B0E0E7E0F2E00C94B0040D89AE
:100410001E8986E08C831A8309838FEF9FE79E8372
:100420008D839E01275E3F4FCE0101966F89788DA7
:10043000A9010E9425022F813885020F131FF801A0
:1004400010822E96E4E00C94CC04ABE0B0E0EBE23A
:10045000F2E00C94A2043C012B015A01FC0117822A
:100460001682838181FD03C06FEF7FEFC6C19AE0E2
:10047000892E1E010894211C311CF3012381F201F5
:1004800023FD859123FF81912F01882309F4B2C1B7
:10049000853239F423FD859123FF81912F01853227
:1004A00029F490E0B3010E941804E7CF982FFF24AD
:1004B000EE249924FFE1FF15D0F09B3269F09C32C5
:1004C00028F4903259F0933291F40EC09D3249F0E5
:1004D000903369F441E024C052E0F52A84E0F82A20
:1004E00028C098E0F92A25C0E0E1FE2A22C0F7FCE6
:1004F00029C0892F80538A3070F4F6FE05C0989C7D
:10050000902C1124980E15C0E89CE02C1124E80EC4
:10051000F0E2FF2A0EC09E3229F4F6FC6BC140E4E3
:10052000F42A07C09C3619F450E8F52A02C0983620
:1005300049F4F20123FD959123FF91912F01992315
:1005400009F0B8CF892F8554833018F0805283305A
:1005500038F444E050E0A40EB51E5FE359830FC0A9
:10056000933631F0933779F0933509F056C020C0B7
:10057000F5018081898342E050E0A40EB51E61013F
:1005800001E010E012C0F501C080D180F6FC03C08C
:100590006FEF7FEF02C0692D70E042E050E0A40EE3
:1005A000B51EC6010E940D048C015FE7F52214C040
:1005B000F501C080D180F6FC03C06FEF7FEF02C071
:1005C000692D70E042E050E0A40EB51EC6010E9405
:1005D00002048C0150E8F52AF3FE07C01AC080E23D
:1005E00090E0B3010E941804EA948E2D90E0081761
:1005F0001907A8F30EC0F601F7FC8591F7FE81916B
:100600006F0190E0B3010E941804E110EA940150D8
:1006100010400115110579F7EAC0943611F09936AA
:1006200069F5F7FE08C0F5012081318142815381CF
:1006300084E090E00AC0F501808191819C0144270B
:1006400037FD4095542F82E090E0A80EB91E9FE63A
:10065000F92257FF09C050954095309521953F4F9D
:100660004F4F5F4FE0E8FE2ACA01B901A1012AE01D
:1006700030E00E944404D82ED21840C0953729F4A7
:100680001F2D1F7E2AE030E01DC01F2D197F9F36D1
:1006900061F0903720F4983509F0ACC00FC0903766
:1006A00039F0983709F0A6C004C028E030E00AC04D
:1006B000106114FD146020E130E004C014FD1660E8
:1006C00020E132E017FF08C0F5016081718182816D
:1006D000938144E050E008C0F50180819181BC0124
:1006E00080E090E042E050E0A40EB51EA1010E941F
:1006F0004404D82ED2188FE7F82EF122F6FE0BC054
:100700005EEFF522D91438F4F4FE07C0F2FC05C000
:100710008FEEF82202C01D2D01C0192DF4FE0DC070
:10072000FE01ED0DF11D8081803319F499EEF9225F
:1007300008C01F5FF2FE05C003C08F2D867809F048
:100740001F5F0F2DF3FC14C0F0FE0FC01E1510F03C
:100750009D2C0BC09D2C9E0C911A1E2D06C080E274
:1007600090E0B3010E9418041F5F1E15C0F304C07F
:100770001E1510F4E11A01C0EE2404FF0FC080E33F
:1007800090E0B3010E94180402FF1DC001FD03C0E8
:1007900088E790E00EC088E590E00BC0802F867857
:1007A00091F001FF02C08BE201C080E2F7FC8DE214
:1007B00090E0B3010E94180406C080E390E0B3010A
:1007C0000E9418049A94D914C0F3DA94F101ED0D43
:1007D000F11D808190E0B3010E941804DD20A9F78B
:1007E00006C080E290E0B3010E941804EA94EE2073
:1007F000C1F743CEF30166817781CB012B96E2E10D
:100800000C94BE04FC010590615070400110D8F7B3
:10081000809590958E0F9F1F0895FC016150704048
:1008200001900110D8F7809590958E0F9F1F089525
:100830000F931F93CF93DF938C01EB018B8181FF8B
:100840001BC082FF0DC02E813F818C819D812817A6
:10085000390764F4E881F9810193F983E88306C0DC
:10086000E885F985802F0995892B31F48E819F8148
:1008700001969F838E8302C00FEF1FEFC801DF91A7
:10088000CF911F910F910895FA01AA27283051F1B5
:10089000203181F1E8946F936E7F6E5F7F4F8F4FB1
:1008A0009F4FAF4FB1E03ED0B4E03CD0670F781F10
:1008B000891F9A1FA11D680F791F8A1F911DA11DF5
:1008C0006A0F711D811D911DA11D20D009F468942E
:1008D0003F912AE0269F11243019305D3193DEF6D6
:1008E000CF010895462F4770405D4193B3E00FD08C
:1008F000C9F7F6CF462F4F70405D4A3318F0495D77
:1009000031FD4052419302D0A9F7EACFB4E0A69559
:100910009795879577956795BA95C9F7009761057B
:10092000710508959B01AC010A2E069457954795D1
:1009300037952795BA95C9F7620F731F841F951FC6
:10094000A01D08952F923F924F925F926F927F92D7
:100950008F929F92AF92BF92CF92DF92EF92FF92CF
:100960000F931F93CF93DF93CDB7DEB7CA1BDB0B7B
:100970000FB6F894DEBF0FBECDBF09942A88398820
:1009800048885F846E847D848C849B84AA84B98427
:10099000C884DF80EE80FD800C811B81AA81B98133
:1009A000CE0FD11D0FB6F894DEBF0FBECDBFED0147
:0609B0000895F894FFCF4A
:1009B60025690050432053746174757320312E31BC
:0809C600004350004D45000004
:00000001FF
