:100000000C942A000C9447000C9447000C94470071
:100010000C9447000C9447000C9447000C94470044
:100020000C9447000C9447000C9447000C94470034
:100030000C9447000C9449000C9447000C94470022
:100040000C9447000C9447000C9447000C94470014
:100050000C94470011241FBECFE5D8E0DEBFCDBF12
:1000600010E0A0E6B0E0EEE1F3E002C005900D92F2
:10007000AA36B107D9F711E0AAE6B0E001C01D9297
:10008000AA36B107E1F70E9493000C948D010C94FD
:1000900000001F920F920FB60F9211240F931F931F
:1000A0002F933F934F935F936F937F938F939F9380
:1000B000AF93BF93EF93FF930E94B100982F80916D
:1000C0006A00E82FF0E0E559FF4F90838F5F80933F
:1000D0006A009A3011F09D3099F4E82FF0E00BE6B9
:1000E00010E0E659FF4F108280E468E2A8010E9408
:1000F000530110926A008FEFF80111928A95E9F787
:10010000FF91EF91BF91AF919F918F917F916F91EF
:100110005F914F913F912F911F910F910F900FBEC3
:100120000F901F9018950E940C0180E190E00E94B2
:10013000A10080E06DE040E650E00E945301789419
:10014000FFCF90BD89B98AB188698AB986EB80BD35
:1001500008955D9BFECF8CB908955D9BFECF8CB951
:1001600008955F9BFECF8CB10895FC0104C05D9B98
:10017000FECF8CB9319680818823C9F708951ABAC9
:10018000C298C098C19ADF99FECF8FEF8ABBC19801
:1001900008951F93182F0E94BF001BBBC29AC09ADC
:1001A00088EC90E00197F1F7C298C0981BBA80EEF6
:1001B0009EE20197F1F71F9108950E94BF001ABABD
:1001C000C09AC19AC29A88EC90E00197F1F78BB37C
:1001D000C298C098C19808951F93182F0E94BF001D
:1001E0008FEF8ABB1BBA1BBBC198C098C29A88EC20
:1001F00090E00197F1F7C2981BBA1F91089581E032
:100200000E94EC0080EE9EE20197F1F70895815084
:1002100080680E94EC0008958FEF8ABB1BBA87B3F9
:10022000876087BB88B388BB88E30E94EC008CE0C2
:100230000E94EC0081E00E94EC0080E099E10197CF
:10024000F1F786E00E94EC0008950F931F93CF937F
:10025000DF93082F162FEA01FA0101900020E9F739
:100260003197E41BF50B1E1B812F800F0E940701A5
:1002700003C00E94C900219688818823D1F7802F6E
:100280000E940701C0E0D0E0012F10E004C080E32D
:100290000E94C9002196C017D107CCF3DF91CF91FE
:1002A0001F910F9108950F931F93CF93DF93282FE2
:1002B000162FEA01DA010D900020E9F71197A41B2F
:1002C000B50B862F90E08A179B07F8F0822F0E94CB
:1002D0000701FE0101900020E9F73197EC1BFD0BAF
:1002E0001E1B03C00E94C900219688818823D1F774
:1002F000C0E0D0E0012F10E004C080E20E94C900FD
:100300002196C017D107CCF303C082E30E94C90035
:0E031000DF91CF911F910F910895F894FFCFC8
:0A031E00504320537461747573009E
:00000001FF
